:1038000011E0A0E0B1E0EAEEFFE302C005900D9206
:10381000A030B107D9F713E0A0E0B1E001C01D92DC
:10382000A23AB107E1F724B72093000114BE8091BA
:1038300060008861809360001092600030E0F901C0
:10384000E270F07021FF099511248FEF94E09EBF84
:103850008DBF83E38093C4001092C50088E18093FC
:10386000C10086E08093C2005098589AD090A0037F
:1038700000E001C001E09DD3182F803379F00023D0
:1038800009F4D1C0813509F4CEC0813459F18535B0
:1038900089F1863519F484E090E02EC0153701F1E6
:1038A000143659F0143749F01234D1F01534C1F000
:1038B0001033B1F01035F1F613C07BD380939F0322
:1038C00078D380939E0375D3DD24853411F4DD24F1
:1038D000D394143661F480919E0390919F030CC0A1
:1038E000153541F0113419F481E090E005C080E015
:1038F00090E002C082E090E0CCE1D3E07E01E80EEF
:10390000F91E02C056D38993CE15DF05D9F751D3DE
:103910008032E9F784E145D3113491F480911C039E
:10392000803811F482E032C0813811F481E02EC079
:10393000823811F480E12AC08839F9F483E026C086
:10394000153559F480911C0390911D03880F991F20
:1039500090939D0380939C0363C0163581F48091FE
:103960001C03803351F480911E03882311F48EE1EF
:103970000DC0813051F484E909C080E007C01537DB
:1039800039F48EE10ED384E90CD386E00AD348C023
:10399000143619F5DD20F9F060919E0370919F03B4
:1039A00040919C0350919D039A010DC0F999FECF5F
:1039B00032BD21BDF0E0E45EFC4F808180BDFA9A0B
:1039C000F99A2F5F3F4FE22FE41B8E2F90E086176E
:1039D000970760F38BC1B5D223C0143709F5E09087
:1039E0009E03F0909F03C0919C03D0919D0300E043
:1039F00010E00FC0DD2039F0F999FECFD2BDC1BD76
:103A0000F89A80B502C0FE018491CBD221960F5F57
:103A10001F4F0E151F0570F3D0939D03C0939C0399
:103A200080E1BFD227CFD092A00384E1BAD280E157
:103A3000B8D2ECE1F3E030E08FEF91E0F999FECFFE
:103A400092BD81BDF89A20B52F3F29F021933F5FA9
:103A50000197383099F7E32FF0E0E45EFC4F1082D5
:103A6000332309F43FC12A9A84B18C6284B9549AF1
:103A700083E58CBD0AE08FEF55D10150E1F780E47A
:103A8000809301011092020110920301109204012F
:103A90001092050185E98093060149D1182F5C9A9F
:103AA0008FEF40D1113009F439C10F5F0031A9F710
:103AB00019C15C9A8FEF36D13AD18823D1F71BC157
:103AC00080915601863329F4109211011092100151
:103AD0001BC08091E2029091E302909311018093C8
:103AE00010016091E2027091E3028091E4029091F2
:103AF000E50238D180915201863409F0F3C08091FB
:103B00005601863309F0EEC08091290180930F01A0
:103B100040912A0150912B01809110019091110147
:103B2000480F591F509311014093100180912C01AF
:103B300090E02091320130913301B901869F9001CC
:103B4000879F300D969F300D1124240F351F309321
:103B500008012093070180912D0190912E0104E02E
:103B6000969587950A95E1F790930E0180930D0144
:103B7000820F931FA0E0B0E08093090190930A01A7
:103B8000A0930B01B0930C01EE24FF241CE1C12E85
:103B900013E0D12EB701B4E076956795BA95E1F7B9
:103BA00080910D0190910E016817790708F091C07E
:103BB0008091070190910801680F791F80E090E0E3
:103BC000D1D08E2D8F70C82FD0E0A5E0CC0FDD1F97
:103BD000AA95E1F7C45EDE4F8881882309F479C095
:103BE000853E09F476C08A8D9B8D009709F471C0DB
:103BF00090931301809312018C8D9D8DAE8DBF8D9E
:103C00008093160190931701A0931801B0931901A6
:103C10001092150110921401D0921B01C0921A014A
:103C200090E021E009C030E0AC0FBD1F8C91E81797
:103C300009F431E023239F5FA92FB0E0FD01E45E8A
:103C4000FC4FE081EE2379F7922309F442C0898585
:103C5000853409F03EC08885883409F03AC08A85E9
:103C60008835B9F553C0112399F060D1899311506B
:103C700073E0CC39D707E9F464D180919C0390912B
:103C80009D0380589F4F90939D0380939C0343C056
:103C90009FD08A3371F44AD1182F80911A019091E4
:103CA0001B01049690931B0180931A013FD1882336
:103CB00061F48091160190911701A0911801B091C3
:103CC00019010097A105B10571F6CC51D34009F057
:103CD00038D10894E11CF11CE0E0EE16E2E0FE06AB
:103CE00009F058CF88E080936000FFCF30939D03A8
:103CF00020939C0395CE60E070E080E090E032D0AD
:103D000080915201863409F0E4CEDACE10929D0300
:103D100010929C0310E0CCE1D3E0CBCF81E4809300
:103D20000101CACE8EBD0DB407FEFDCF08951F93CD
:103D3000CF93DF938FEFF6DF5C98C1E0D1E08991FC
:103D4000F1DF81E0C730D807D1F710E08FEFEADF6D
:103D50008EB587FF03C01F5F1F3FC1F7DF91CF9173
:103D60001F9108951F93CF93DF93660F771F881FCE
:103D7000991F21E5209301018093020170930301B3
:103D8000609304011092050180E58CBDD0DF88238B
:103D900041F41FEF8FEFC6DF8EB58E3F29F0115033
:103DA000C9F75C9A83E010C0CCE1D1E08FEFBADFB5
:103DB0008EB5899383E0CC31D807C1F78FEFB2DF9E
:103DC0008FEFB0DF5C9A80E0DF91CF911F91089573
:103DD0006F927F929F92AF92BF92CF92DF92EF92BB
:103DE000FF920F931F93CF93DF93A0901A01B0908F
:103DF0001B018CE1A81683E0B80608F461C0C091ED
:103E00001201D0911301C0901401D0901501E090DF
:103E10000F019E2C9694892D860103C01695079557
:103E200086958823D9F760901001709011012FEFCB
:103E300016C08D2F9927F82E281731F0B301680F7F
:103E4000711D80E090E08EDFFE01F070EE0FFF1F2D
:103E5000E45EFE4FC081D181015010402F2D01152D
:103E6000110539F722979E0140E050E005C0220F6E
:103E7000331F441F551F96949920C9F7EA94EC20EC
:103E80006091090170910A0180910B0190910C01E0
:103E90006E0D711D811D911D620F731F841F951F73
:103EA00061DF0894C11CD11CD0921501C09214018D
:103EB00080E09EEFA80EB91EB0921B01A0921A01DD
:103EC0008091160190911701A0911801B0911901EC
:103ED0000197A109B1098093160190931701A0934E
:103EE0001801B0931901E0911A01F0911B01819121
:103EF000F0931B01E0931A01DF91CF911F910F9175
:103F0000FF90EF90DF90CF90BF90AF909F907F9009
:103F10006F900895813610F087550895813410F020
:103F200087530895803308F0805308951F9350DF1E
:103F3000F1DF182F4DDFEEDF1295107F810F1F91FB
:103F40000895F999FECF40919C0350919D0383E021
:103F5000FA0180935700E89507B600FCFDCF20E0FA
:103F600030E061E0F901E40FF51FD901A45EBC4F18
:103F70008D919C910C0160935700E89511242E5F60
:103F80003F4F2038310571F785E0FA0180935700E3
:103F9000E89507B600FCFDCF81E180935700E895D6
:103FA0000895982F8091C00085FFFCCF9093C600A4
:103FB000089520E030E040E050E010C02F5F3F4F18
:103FC0004F4F5F4F213482E438078FE0480780E08D
:103FD000580721F488E080936000FFCF8091C000F3
:0A3FE00087FFECCF8091C600089522
:0400000300003800C1
:00000001FF
